:0414000085EF0AF07A
:101406000D602382FACF01F0FBCF02F0E9CF03F0A3
:10141600EACF04F0E1CF05F0E2CF06F0D9CF07F02E
:10142600DACF08F0F3CF09F0F4CF0AF0F6CF0BF0DD
:10143600F7CF0CF0F8CF0DF0F5CF0EF09EA244D00A
:101446009E921D2A000E0F6E1FA206D021501D5C13
:10145600D8B002D0010E0F6E0FA002D08B8601D03D
:101466008B96000E106E1FA406D022501D5CD8B0BD
:1014760002D0010E106E10A002D08B8801D08B987E
:10148600000E116E1FA006D020501D5CD8B002D0F1
:10149600010E116E11A002D08B8A01D08B9A1C50BE
:1014A6001D5CD8B002D08B8001D08B901B501D5C88
:1014B600D8B002D08B8201D08B921A501D5CD8B066
:1014C60002D08B8401D08B940EC0F5FF0DC0F8FFBF
:1014D6000CC0F7FF0BC0F6FF0AC0F4FF09C0F3FF0C
:1014E60008C0DAFF07C0D9FF06C0E2FF05C0E1FF6A
:1014F60004C0EAFF03C0E9FF02C0FBFF01C0FAFF18
:081506002392110088EF1FF091
:103F0100050A05000E946E7888788A788C12001F55
:103F11006A1E6A1D6A1C6A1B6A1A6A010EF66E3FE6
:103F21000EF76E000EF86E0900F5CF20F00900F5CE
:103F3100CF21F00900F5CF22F0239023920001A2B6
:103F4100EF1FF082EC1FF0000E136E000E126E00D8
:103F51000E196E000E186E000E946E000E8B6E0020
:103F61000E7E6E000E7F6E870ED56E060ECA6E3007
:103F71000ECB6E000E1A6E000E1B6E000E1C6E9D97
:103F810082F28CF28E6D9A6B9AF2A42FD09E82F2FD
:103F910094A40ED76E720ED66E184A192A18A00272
:103FA100D01F8201D01F9218A202D01F8401D01FFE
:103FB1009418A402D01F8001D01F901FB204D0001A
:103FC1000E156E000E03D0000E156E0A0E146E143F
:103FD100C01AF01FB004D0000E176E000E03D000FF
:103FE1000E176E0A0E166E16C01BF081BACDD7F2EF
:0E3FF1009CF29E000E8B6E0EEF00F0C6D70005
:00000001FF
