:10000000E7EF07F0C2EF03F004EF08F08B96030070
:10001000A1A4D0B61200FBD70CEF08F018EF00F047
:10003000F26AFC6AD7EC00F0040062EC03F0ADEC6D
:1000400007F0EAEC00F0DEEC01F081AAFF00F4D743
:10005000316A10D061513124A96E6551A008312454
:10006000D96EDA6ADF50A86E040EA66EB50E6BEC80
:1000700000F0312A00016551315CECE3120002010D
:10008000086B3E6A00AF02D0006B396A04AF03D040
:10009000046B010E396E3C6A3B6A286A296A6498CF
:1000A00012EC06F002EC00F072EF05F03D6A1E0E55
:1000B0000F01546F400E02010D6F2C0E0E6F020ED9
:1000C0000F6F080E0C6F0C8F6C0E126F020E136FF9
:1000D000400E106F400C456EF29EEAEC00F0B50E3B
:1000E000451804E0030ED36E0300FED7550EA76E2D
:1000F000AA0EA76EA682A6B2FED7A6941200380456
:1001000002E1C2EC00F0646A150E616E606A6486FA
:100110008CEC07F0010E3F6E386A120060CF2FF0B2
:10012000040E606E62986482A194A08406EC00F0D4
:10013000A0942F5060121200356A04D8366A010E5E
:10014000376E010C09680A680B680C68120005D04C
:10015000FEEC07F04506D8A0460645504610F8E1EB
:100160001200E3EC00F06492609401D0629462A407
:100170001200FCD7456E4504D8A4120056EC00F0DE
:100180009CEF00F06492646A46684568A7EC00F052
:100190003F6A1200380401E1120064A67FEC00F00F
:1001A0001200C2EC00F0FF0000F000F012009CEC26
:1001B00000F08B969496DDEF00F064B6C2EC00F090
:1001C000386ACAEF00F0030E466E456AADEF00F0E4
:0601D000120012001200F3
:1003000000B6046134034D006900630072006F00A1
:1003100063006800690070002000540065006300FD
:1003200068006E006F006C006F00670079002000AD
:1003300049006E0063002E000902290001010080BF
:10034000320904000002030000000921110100012C
:10035000221D00070581034000010705010340003D
:100360000126034800490044002000550053004284
:1003700000200042006F006F0074006C006F00618D
:10038000006400650072000600FF0901A101190167
:100390002940150026FF00750895408100190129A4
:1003A000409100C01201000200000008D8043C0087
:1003B000010101020001040309040000060E3F18B8
:1003C000D8B464B21200355001E050D102010CBF24
:1003D0001200400E456E600EC7EC06F0010E356E41
:1003E0002A6A2A50A10FD96EDA6ADF6A2A2A3F0EDA
:1003F0002A64F7D73F0C020110BF1200020E000161
:10040000A16F3A0EA26F010EA36FA46FA56B100E21
:10041000A66FA76BA86BA96B300EAA6FAB6BAC6B0A
:10042000030EAD6FAE6BAF6B300EB06FB16B0E0ED7
:10043000B26FB36BB46BB56B040EB66FB76BB86BC2
:10044000200EB96FBA6B080EBB6FBC6BBD6BBE6B79
:10045000BF69020EBF6FC06BC16BF00EC26FC36B82
:10046000C46B010EC56FC66BC76BC869A50EDA6F8A
:1004700025D9F7EC06F0356A1200010E376E61518E
:10048000FAE1376AF8D7276A400E266EFEEC07F0CD
:10049000F86A26C04AF027C04BF0D8904B324A3257
:1004A000D8904B324A324A50F76E2640E842C00B91
:1004B000F66E940EA66EB50E6BEC00F062EC03F0D7
:1004C000264A272A2704E2E32A6A2AC0A9FFA86845
:1004D000040EA66E62EC03F0B50E6BEC00F02A3E43
:1004E000F4D7200EF86EF76A6EEC05F06BEC00F0B6
:1004F000C2D7300E631905E13750BDE1CBEC07F0F0
:10050000BAD7F00E631903E128EC00F0B4D709283C
:100510000EE10A280CE10B280AE10C2808E161C071
:1005200009F062C00AF063C00BF064C00CF009501F
:100530006119A1E10A5062199EE10B5063199BE118
:100540000C50641998E12A6A14D06551A0082A2435
:10055000D96EDA6A000E3624A4D8362A092A000E8B
:100560000A220B220C22100E361802E174EC04F061
:100570002A2A000165512A5C01E37DD7E6D774EC95
:1005800004F0A2EC00F077D7070EA16F61C0A2F0D3
:1005900062C0A3F063C0A4F064C0A5F065C0A6F07B
:1005A00061C011F062C012F063C013F02A6A1BD060
:1005B000F00E631909E161512A24A96EA66AA6808A
:1005C00077D8A8CFDFFF0ED011C0F6FF12C0F7FF1B
:1005D00013C0F8FF6DD80800F5CFDFFF112A000E19
:1005E000122213222A2A65512A5CE2E3020110BF7B
:1005F000120064D8F7EC06F03ED71FEC05F03BD7AD
:100600000C0EA16F010EA36F020EA26F160E6FECFF
:1006100004F0F5CFA4F00A00F5CFA5F0060EA66F02
:10062000100EA76FA86BA96B600EAB6F0D0EAA6FB3
:10063000400EAC6F000EAD6BAE6BAF6BB069B169C5
:10064000B269B369B46BB569B669B76BB869B969B2
:10065000BA69BB69BC69BD69020110BF12002ED81E
:10066000F7EC06F008D7D1EC00F005D70001605197
:10067000020A01E1C0D6010A01E1FFD6070A01E141
:1006800002D7010A01E135D7030A01E178D7010A4F
:1006900001E17AD70F0AE7E0010AAFE0050AB0E00E
:1006A000EAD6E16EE26A010EE222DFCFE7FF120036
:1006B0006551E1082A24D96EDA6A1200400E456EAF
:1006C000A10E1200CAEC00F03F5001E1120062B42A
:1006D000B1EC00F064B2120062B08CEC07F062B8CA
:1006E0008EEC00F0030E3F6001D0030C3A6A62A664
:1006F0001200635063CF48F07C0E48162AE163B2C3
:1007000002D0246A02D0040E246E020E256E629678
:1007100024C0D9FF25C0DAFFDF30E8320F0B0D0A05
:1007200020E12D6A23D8DECF48F0DDCF49F048C064
:10073000D9FF49C0DAFF2D50010F1FD817D8DE2A84
:10074000000EDD222D2A070E2D64ECD73FEC00F0C1
:1007500008D0040E631804E162966BEC07F001D038
:1007600062963A2A030E3A64C2D7030C20EE02F0D6
:100770002450D9262550DA221200E16EE26ADFCF3A
:10078000E7FF120001501F0BE80601E012000550C0
:1007900001E01200060E021814E01AD0020E3B6EA1
:1007A0004A0E3FD8296A090E0AD0020E3B6E430456
:1007B00002E1870E36D843040AE1296A1D0E286E2D
:1007C00006D00450210AEAE0030AEFE0010A408261
:1007D0000138E832030BE80614E01200020E3B6E0B
:1007E000420E1D6E24D0020E3B6E04C042F0020C7D
:1007F000020E3B6E410EF5D7020E3B6E03C041F078
:10080000020C0250010AD8B41200030AE7E0010A00
:10081000EFE00A0AD8B41200030AE5E0010AECE0AE
:1008200012001D6E1D50D8A4030E1E6E12001E6A0B
:100830004092010E286E010C946A8B6A7E6A7F6A70
:1008400093687888788A788C526A050E526401D051
:1008500020D052C04CF0010E4D6E4C2A02D0D890E0
:100860004D364C2EFCD74D508B6E4E6A4F6A506AF7
:10087000516A504A512AFA0E505CFF0E5158F9E362
:100880004E4A4F2A4F5003E1040E4E5CF0E3522AC9
:10089000DCD78B6A7F94F19E9388788800F081B8CA
:1008A00004D094988B8818EC00F0060E18D80D0E22
:1008B000F5180FE10900600EF5180BE1F66A100E4D
:1008C000F76E0900F52803E10900F52802E000EFC2
:1008D00008F0949A8B8A18EC00F000EF00F0F66EA6
:1008E000100EF76E0900100C3650095C466E000EB3
:1008F0000A58476E000E0B58486E000E0C58496E91
:100900004650176E47C018F048C019F0F86A18C072
:10091000F7FF17C0F6FF326AF6500F0B336EF00E7A
:10092000F616346A335011E136500CE0000E3224D2
:10093000D96EDA6A010EDA22DF50F56E0D00322A26
:10094000360606D0F5680D0003D0F5680D003306B5
:10095000342A0F0E3464E6D70A001BD86BEC00F083
:10096000346A13D0000E466E010E476E3250462692
:10097000000E472234504624D96E000E4720DA6E0E
:10098000000E342451EC03F0342A3650345CEAE390
:100990001200A40EA66EB50C03040BE101501F0B50
:1009A00008E1010E3B6E030E021802E1408001D007
:1009B00040900350D8A4120001501F0B020AD8A483
:1009C000120005500F0BD8B412002DD8456A020E44
:1009D000466E040E4526000E4622F3504526F4507E
:1009E000462227D845241A6EF45046201B6E030E6B
:1009F000021807E113D8040EDF6E10D8000EDB8E4C
:100A0000000C05AE04D00AD8400EDF6E400C06D8AC
:100A1000080EDF6E03D8000EDB8E000C1AC0D9FF63
:100A20001BC0DAFF1200010E3B6E05500F0B080DC4
:100A30001200010E05AE000E040DF3501200146AF0
:100A4000100E156E166A2B6A14C0F6FF15C0F7FF5C
:100A500016C0F8FF3CD80800F5CFDFFF142A000EBF
:100A6000152216222B2A3F0E2B64EED70D0E010104
:100A7000066F600E076FF86A100EF76E2FD86BECDA
:100A800000F03F0E146E100E156E166A3F0E2B6EA0
:100A900016C0F8FF15C0F7FF14C0F6FF18D8DF50D6
:100AA000F56E0C002BC046F00F0E461606E1FEEC6C
:100AB00007F0C9EC04F06BEC00F01406000E155AB8
:100AC000165A0A002B5001E112002B06E1D7000E46
:100AD0002B24D96EDA6A010EDA221200F66A940E1D
:100AE000A66EB50C3B5010E187EC07F00D6E390493
:100AF00005E1010E25EC07F0396A1200000E25EC25
:100B000007F0010E396E010C01AE1ED0010E3C6ED5
:100B10002850075C2950085804E207C028F008C094
:100B200029F0C3EC05F0480E0D6E010E25EC07F020
:100B3000000E25EC07F0240E02010A6F020E0B6F67
:100B4000480E086F088F480C020E3C6E040E0D6EA6
:100B50000750081002E1480E0D6E390405E1010E40
:100B600025EC07F0396A05D0000E25EC07F0010EE0
:100B7000396E07500810D8A412000201096B480E04
:100B8000086F088F480C080E2C6E29500DE1080ED6
:100B9000285C0AE228C02CF03E5002E1010E03D08E
:100BA0003E0402E1020E3E6E2CC009F22C50285E7B
:100BB000000E295A240E1A6E020E1B6E40A21ED081
:100BC0000DD01DC0F6FF1DD80EEC05F0020EF76427
:100BD00003D00800F55001D018D81DD82C50F1E1F1
:100BE00012001DC0F6FF0DD80EEC05F0020EF764E2
:100BF00003D00800F55001D008D80DD82C50F1E1F1
:100C000012001EC0F7FFF86A1200F6CFE1FFF7CF1F
:100C1000E2FFE7501200DF6E1A4A1B2A1D4A1E2A05
:100C20002C0612000138E832030B18E01200010E06
:100C30003B6E040E3F6E040C010E3B6E430E1D6EA8
:100C400017EF04F02CD8476E47C01DF017EF04F0E3
:100C500026D8D96EDA6A03C0DFFF1200025002E123
:100C600090EF06F0010A02E1CCEF04F0020A02E183
:100C7000CCEF04F0060ADBE0030A02E154EF06F0D1
:100C8000010AD8B412000F0AD7E0010A02E149EFC5
:100C900007F0030AD7E0010ADBE0070A1200010EA1
:100CA0003B6E0550440F1200800E011830E0120018
:100CB000010E3B6EA40E11EC04F0120E09D003508D
:100CC0002DE1010E3B6E380E11EC04F0296A290E5D
:100CD000286E24D0010E3B6E0350010F456E45C0B7
:100CE000F6FF030EF76E0900F5CF1DF01E6E1DC056
:100CF000F6FF1EC0F7FFF86A020EF76403D0080083
:100D0000F55002D005EC06F0286E296A07D0045091
:100D1000010ACEE0030AD3E0010ADCE040821200BF
:100D2000246B256B23D0010E3B6E40B0248325D06D
:100D3000010E3B6E22D013EC05F0456A020E466EA2
:100D4000040E4526000E4622F3504526F450462256
:100D500019EC05F045241A6EF45046201B6E0EEC7B
:100D600005F0DFA40AD0010E246F07D001501F0B3D
:100D7000DAE0010ADDE0030ADEE03B04D8A4120059
:100D8000240E1D6E020E1E6E4092286E020C476EDF
:100D90003D6A02010CBF120045500D5D02E20DC21A
:100DA00045F03D6A0BD02C0E3D24D96EDA6A020E56
:100DB000DA2247503D24BDEC03F03D2A45503D5C0E
:100DC000F2E3400E02010D6F0C170CBD03D0466A12
:100DD000462A01D0466A463A4646464602010C512A
:100DE0004618BF0B46180C6F0C870C8F1200476E0D
:100DF000400E456401D0456E486A0DD047504824E6
:100E0000D96EDA6A6C0E4824E16EE26A020EE222C2
:100E1000DFCFE7FF482A4550485CF0E345C011F2B8
:100E2000400E0201101710BD03D0466A462A01D0B9
:100E3000466A463A46464646020110514618BF0BDE
:100E40004618106F1087108F1200456E080E0E6E38
:100E50001C0E0F6E020E106E455006E1140E0F6E42
:100E6000020E106E226A03D0040E226E020E236E52
:100E70000BD80DC0DEFF0EC0DEFF0FC0DEFF10C0BE
:100E8000DEFF02D8DF8E120022C0D9FF23C0DAFFB6
:100E90001200010E3B6E0F0116D82E6A2E50440F21
:100EA000D96EDA6ADF6A2E2A2E50F8E003C043F0CA
:100EB0004350BAEC00F0035003E1050E3F6E050C01
:100EC000060E3F6E060C546B556B566B576B586B8A
:100ED000596B5A6B1200040E3F1808E103C05CFF07
:100EE0000F015C51050ED8B4030E3F6E3C04D8A42C
:100EF0001200C3EC05F0020E3E1802E108D8040C03
:100F00000201480E08BD080E086F088F1200040E7B
:100F10000201086F088F040C030E3F6E0F015B6B1C
:100F2000626A7B0E606E5C6B63EC07F0160E536FAB
:100F3000648C03D06296FEEC07F062B6FBD7649C2B
:100F40006498040E0D6E000E25EC07F0010E396E4C
:100F5000406A436A000EBAEF00F02006D8A02106CE
:100F600020502110D8A412004E0E216E206A060EC9
:100F70003F6002D08B86060C8BB603D0456A452AAB
:100F800001D0456A4546454645468B504518F70B06
:100F900045188B6E1200300EF86E6251F76E61C00C
:100FA000F7FF306A0FD06551A0083024D96EDA6A95
:100FB000DF50F56E0C00C40EA66EB50E6BEC00F0A3
:100FC0000900302A00016551305CEDE3120001EEAA
:100FD00000F0400EEE6AE806FDE100EE60F0820EE1
:100FE000EE6AE806FDE100EE01F0440EEE6AE80666
:100FF000FDE1000EF86E00011CEF04F00400120089
:021006000D607B
:020000040030CA
:0E0000000032031EFF0081FF03C003E0034037
:00000001FF
